:100000000C9460030C948F030C948F030C948F0357
:100010000C948F030C948F030C948F030C948F0318
:100020000C948F030C948F030C948F030C948F0308
:100030000C948F030C948F030C948F030C948F03F8
:100040000C948F030C94032D0C948F030C948F034A
:100050000C948F030C948F030C948F030C94963A9A
:100060000C948F030C9460380C94D9380C948F0343
:100070000C948F030C948F030C948F030C948F03B8
:100080000C948F030C948F030C948F030C948F03A8
:100090000C94007D0C948F030C94B87E0C948F0309
:1000A0000C948F030C948F030C948F030C948F0388
:1000B0000C948F030C948F030C948F030C948F0378
:1000C0000C948F030C948F030C948F030C948C3836
:1000D0000C9496380C948F030C948F030C948F031C
:1000E0000C948F0373746172740A002F20004D49C1
:1000F0005353494E472100423A2020202F202020F0
:10010000004265642020203A202020202F2020203B
:10011000002F20004D495353494E472100483A20B3
:1001200020202F20202000486F74656E643A202024
:1001300020202F20202000534A4657206279205348
:1001400063726962626C654A0025005344205072F4
:10015000696E743A2000363D4E45585420233D5078
:1001600052494E54003E200053442046696C65209D
:1001700053656C656374005072696E74696E673A9A
:1001800020004D41494E204D454E55002F20004D39
:10019000495353494E472100202020202020202071
:1001A00000202020202020202020002F20004D494A
:1001B0005353494E4721002020202020202020009A
:1001C0002020202020202020002121204158495398
:1001D00020415245204E4F5420434F4E46494755EB
:1001E0005245442021210A002045494E5620002036
:1001F0004550554C4C200020494E56200020444983
:10020000532000206E6F206D61782000206E6F20DB
:100210006D696E2000206E6F20656E61626C6520D6
:1002200000206E6F206469722000206E6F2073744E
:1002300065702000206E6F20616363656C20002074
:100240006E6F2073746570735F7065725F756E6931
:100250007420006F6B200A005741524E494E473AB6
:1002600020534552494F555320454550524F4D203C
:100270004641494C0A004641494C00424547494ED7
:1002800000454550524F4D2000454550524F4D209E
:1002900053544F50002F005344207072696E74699C
:1002A0006E6720627974652000204641494C002029
:1002B000424547554E005072696E74696E67200062
:1002C0005344204F4B005344204572726F723A20C2
:1002D00000456E642066696C65206C6973740A0061
:1002E000202000426567696E2066696C65206C6934
:1002F00073740A00206661696C65643A200066695F
:100300006C652E6F70656E20002C207265616479BB
:1003100020746F207072696E740A0046696C6520E3
:1003200073656C656374656420000A494E56414CE0
:1003300049444154454420434F4445530A00204E0C
:100340004F5420535550504F525445440A00204DAD
:10035000434F444520004641494C00424547554ED5
:1003600000454550524F4D20524541443A2000200F
:100370004641494C0020424547554E0020464541E4
:1003800054555245533A302F6372632D7632002014
:1003900056455253494F4E3A312E3131204652453F
:1003A000455F52414D3A002F20004D495353494E6D
:1003B000472100423A2020202F202020004265645F
:1003C0002020203A202020202F202020002F200035
:1003D0004D495353494E472100483A2020202F20B1
:1003E000202000486F74656E643A202020202F2062
:1003F000202000534A465720627920536372696275
:10040000626C654A0025005344205072696E743A4C
:100410002000204E4F5420535550504F52544544C5
:100420000A002047434F444520002F20004D4953E8
:1004300053494E472100423A2020202F20202000FF
:100440004265642020203A202020202F20202000F8
:100450002F20004D495353494E472100483A202050
:10046000202F20202000486F74656E643A202020E1
:10047000202F20202000534A4657206279205363C2
:10048000726962626C654A002500534420507269AB
:100490006E743A20000001040505030304050604F8
:1004A0000506070100010003020100000102030428
:1004B00005060707060504030201000702010007FD
:1004C0000605040302010003020100000102030407
:1004D00005060700010203040506072C002C002C6A
:1004E000002C0032002C000001000100010001235B
:1004F0000023002300230003010301000100012960
:1005000000290029002900200020002000200020D0
:1005100000200020002000260026002600260026BD
:100520000026002600260029003200320032000991
:100530000109010901090109010901090109012351
:10054000002300230023002F002F002F002F002F57
:10055000002F002F002F00060106010601060106EC
:100560000106010601060152454144504153540A17
:1005700000454550524F4D204F564552464C4F571F
:1005800000494E46494E4954594E414ECDCCCC3D82
:100590000AD7233C17B7D13877CC2B329595E62470
:1005A0001FB14F0A000020410000C84200401C4615
:1005B00020BCBE4CCA1B0E5AAEC59D7400407A10BA
:1005C000F35A00A0724E18090010A5D4E80000E804
:1005D0007648170000E40B54020000CA9A3B000062
:1005E00000E1F505000080969800000040420F00F1
:1005F0000000A08601000000102700000000E803B2
:10060000000000006400000000000A00000000007C
:100610000100000000002C76D888DC674F0823DF3B
:10062000C1DFAE59E1B1B796E5E3E453C63AE6510E
:10063000997696E8E6C28426EB898C9B62ED407C35
:100640006FFCEFBC9C9F40F2BAA56FA5F490055AD1
:100650002AF75C936B6CF9676DC11BFCE0E40D47F6
:10066000FEF520E6B500D0ED902E03009435770519
:100670000080841E080000204E0A000000C80C33D1
:100680003333330F986E12831141EF8D2114893B60
:10069000E65516CFFEE6DB18D1844B381BF77C1DE0
:1006A000901DA4BBE424203284725E228100C9F133
:1006B00024ECA1E53D27AE492E58E4608064AC7F70
:1006C00011241FBECFEFD1E2DEBFCDBF13E0A0E00B
:1006D000B2E0E4E1F4E101E00BBF02C007900D924B
:1006E000A637B107D9F71BE1A6E7B3E001C01D9219
:1006F000A033B107E1F716E0C0ECD6E000E006C099
:1007000022970109FE010BBF0E945B83C63BD10704
:1007100080E00807A9F70E94B2170C94088A0C948D
:100720000000ACE2B0E0E7E9F3E00C942483298315
:100730003A834B835C836D837E838F839887A986FE
:10074000BA86CB86DC86ED86FE860F87188B69809D
:100750007A808B809C8069A27AA28BA29CA2840161
:1007600073018FEF9FEFA0E0B0E0E822F9220A23A7
:100770001B2314014424552469847A848B849C842B
:100780006DA27EA28FA298A664015301A822B9226D
:10079000CA22DB22340188249924C601B501A801AC
:1007A00097010E94BC8269A77AA78BA79CA7C40166
:1007B000B3010E94BC827B018C01C601B501A2017C
:1007C00091010E94BC825B016C01C401B3010E94D3
:1007D000BC829B01AC01EA0CFB1C0C1D1D1D69A415
:1007E0007AA48BA49CA4C401AA27BB27E80EF91EF7
:1007F0000A1F1B1FEA14FB040C051D0520F42050E2
:1008000030404F4F5F4FC801AA27BB27820F931F6D
:10081000A41FB51F8D8F9E8FAF8FB8A38701FF24B4
:10082000EE2429A53AA54BA55CA540705070E20EB8
:10083000F31E041F151FE98EFA8E0B8F1C8FDE2C02
:10084000AA8CCB8C6C8C8D8B8E8D8E8B8F8D8F8BA1
:1008500088A1888F2D853E854F85588969A17AA109
:100860008BA19CA10E94BC827B018C012D813E81C9
:100870004F8158856DA17EA18FA198A50E94BC8251
:10088000E60EF71E081F191F6D897E898F89988DC6
:100890006E0D7F1D801F911F6D8B7E8B8F8B988FB0
:1008A0007E892D2D3A2D4C2D562D8F89988DAC9605
:1008B000E2E10C9440830F93DF93CF93CDB7DEB783
:1008C00060970FB6F894DEBF0FBECDBF002309F4CA
:1008D00059C029833A834B835C836D837E838F83E6
:1008E0009887E0E2E01B2D813E814F8158851E16DE
:1008F000BCF01D861E861F86188A8E2F992787FDBD
:100900009095909581959F4F04C056954795379542
:1009100027958A95D2F729873A874B875C872AC023
:10092000CA01B901002E04C0969587957795679501
:100930000A94D2F76D877E878F87988BDA01C90179
:1009400004C0880F991FAA1FBB1FEA95D2F72981FF
:100950003A814B815C8104C0569547953795279520
:100960000A95D2F7822B932BA42BB52B89879A87D4
:10097000AB87BC8729853A854B855C856D857E85EF
:100980008F85988960960FB6F894DEBF0FBECDBFF5
:10099000CF91DF910F9108950F93DF93CF93CDB750
:1009A000DEB760970FB6F894DEBF0FBECDBF002351
:1009B00009F459C029833A834B835C836D837E831A
:1009C0008F839887E0E2E01B29813A814B815C812B
:1009D0001E16BCF019861A861B861C868E2F992738
:1009E00087FD9095909581959F4F04C0220F331FEE
:1009F000441F551F8A95D2F72D873E874F87588B06
:100A00002AC0CA01B901002E04C0660F771F881FD3
:100A1000991F0A94D2F769877A878B879C87DA01B6
:100A2000C90104C0B695A79597958795EA95D2F721
:100A30002D813E814F81588504C0220F331F441FF2
:100A4000551F0A95D2F7822B932BA42BB52B8D879C
:100A50009E87AF87B88B29853A854B855C856D85E8
:100A60007E858F85988960960FB6F894DEBF0FBE9D
:100A7000CDBFCF91DF910F9108950F931F93CF9327
:100A8000DF93EC010091EA031091EB03C8010E948F
:100A90003661C80FD91FD7FF02C0C0E0D0E0C8013F
:100AA000BE010E941E618823D1F3DF91CF911F9177
:100AB0000F9108950F931F93CF93DF93EC01009153
:100AC000EA031091EB03C8010E943C61C80FD91FD3
:100AD000D7FF02C0C0E0D0E0C801BE010E9424617F
:100AE0008823D1F3DF91CF911F910F910895FC01DD
:100AF00020E030E0A90120833183428353832483A3
:100B000035834683578320873187428753872487DD
:100B10003587468757870895DC01ED91FC91119741
:100B2000318181E090E002C0880F991F6A95E2F759
:100B3000282F20952323442309F480E0822B8183EE
:100B40000895DC01ED91FC911197328181E090E0F4
:100B500002C0880F991F6A95E2F7282F209523235A
:100B6000442309F480E0822B82830895462FFC0100
:100B700062816F700E948C050895462FFC0162818E
:100B80006F700E94A1050895CF93DF93FC01DC01F3
:100B90009C01225A3F4FAC0142595F4F80E090E0E8
:100BA00017961C921E92169719961D921D921D92D1
:100BB0001C921C97843091053CF4E901188219823B
:100BC0001A821B82EA011882019617962C5F3F4F0A
:100BD0004F5F5F4F8930910519F711821082DF0155
:100BE000A45BBF4F1D921D921D921C9213972FEF75
:100BF0003FEF4FEF5FEF2283338344835583DF0161
:100C0000AC5ABF4F20E030E0A9012D933D934D93A6
:100C10005C931397DF01A65ABF4F1D921D921D9240
:100C20001C921397DF01AE58BF4F1D921C92DF013B
:100C3000A757BF4F1D921D921D921C921397DF0163
:100C4000AF55BF4F1D921D921D921C921397DF014D
:100C5000AB55BF4F1D921D921D921C921397E355E9
:100C6000FF4F1082118212821382DF91CF9108957B
:100C7000CF93DF93EC011F821E8288E588871E8652
:100C80001D8689E58F871D8A1C8A8AE58E8B1C8EBE
:100C90001B8E85E48D8F1BA21AA28DE48CA31AA64D
:100CA00019A687E48BA719AA18AA86E48AAB18AEFE
:100CB0001FAA80E589AF1FAE1EAEFE01E05CFF4FAC
:100CC00083E58083FE01EB5BFF4F11821082FE0102
:100CD000E95BFF4F84E58083CE018B549F4F0E94D8
:100CE0007705CE018B539F4F0E947705CE010E945E
:100CF000C405DF91CF910895CF92DF92EF92FF92DA
:100D00000F931F93DF93CF930F92CDB7DEB78C0174
:100D1000DC019A968C919A97882309F05AC0C801F1
:100D200060E00E94BD05C801039661E00E94BD0518
:100D300024E0E22EF12C6701CC0CDD1CCE0CDF1C74
:100D4000E9E0F0E0CE0EDF1EC00ED11EC60160E06D
:100D50000E94B605C60160E00E94BD050894E11C32
:100D6000F11CF8E0EF16F10431F786E0E82EF12CE3
:100D7000E00EF11EC70161E00E94BD05D80190960A
:100D80002C9190972F705E96ED91FC915F9700816A
:100D9000C70160E029830E94BD0580917603298107
:100DA000882379F4802F90E002C0959587952A9545
:100DB000E2F78170907080933E0381E08093760328
:100DC00009C080913E031092760391E090933E0318
:100DD00001C080E00F90CF91DF911F910F91FF90A4
:100DE000EF90DF90CF900895CF92DF92EF92FF9235
:100DF0000F931F93CF93DF937C0100E010E0C62E8A
:100E0000DD24C8010496EC01CC0FDD1FC80FD91FEB
:100E10002996CE0DDF1DCE0161E00E94B605B60118
:100E2000002E02C0759567950A94E2F761707070A4
:100E3000CE010E94BD050F5F1F4F0430110509F759
:100E4000E7012696CE0161E00E94BD05CE0160E07B
:100E50000E94BD05DF91CF911F910F91FF90EF9000
:100E6000DF90CF900895EF92FF920F931F93CF934F
:100E7000DF93EC018C010D5F1F4FC80161E00E9400
:100E8000B605C80160E00E94BD05CE0161E00E9488
:100E9000B605CE0160E00E94BD058E010A5F1F4FBE
:100EA000C80161E00E94B605C80160E00E94BD056E
:100EB00064E670E080E090E00E94083ACE0163E0D2
:100EC0000E94F4066AE070E080E090E00E94083A38
:100ED000CE0163E00E94F4066AE070E080E090E0FA
:100EE0000E94083ACE0163E00E94F4066AE070E0D6
:100EF00080E090E00E94083ACE0162E00E94F40691
:100F00006AE070E080E090E00E94083A81E089A702
:100F1000DF91CF911F910F91FF90EF900895EF9285
:100F2000FF920F931F93CF93DF93EC017A018B0114
:100F3000CB01BA0120E030E0A9010E94AF80181671
:100F400064F4ED86FE860F87188BC801B7010E94F6
:100F50002081698B7A8B8B8B9C8BDF91CF911F913A
:100F60000F91FF90EF900895EF92FF920F931F93D0
:100F7000CF93DF93EC017A018B01CB01BA0120E022
:100F800030E0A9010E94AF80181644F4C801B701EF
:100F90000E9420816D8F7E8F8F8F98A3DF91CF91DC
:100FA0001F910F91FF90EF900895FF920F931F9361
:100FB000CF93DF938C0170E0EB01CC0FDD1FC60FE8
:100FC000D71FC80FD91FCE0161E00E94B605CE0120
:100FD00060E00E94BD05D80120E030E0FF2481E000
:100FE00090E01C96ED91FC911D97408150E0F90135
:100FF000EE0FFF1FE20FF31FE00FF11F66856F700A
:1010000002C0559547956A95E2F740FD08C0AC01CE
:10101000022E02C0440F551F0A94E2F7F42A2F5FF4
:101020003F4F139624303105E1F6CE0160E00E9477
:10103000B605CE0160E00E94BD058F2DDF91CF91F6
:101040001F910F91FF900895CF92DF92EF92FF9240
:101050000F931F93CF93DF93EC01888199812FEF3A
:101060008F3F920709F459C00E946B3A6B017C01D3
:1010700000E010E0CE01602F0E94D5078823A9F17F
:1010800020E030E090E0AC01022E02C0559547957B
:101090000A94E2F740FF24C0220F331FE88DF98D38
:1010A000E20FF31F0190F081E02DE00FF11F80812E
:1010B0009F8D891751F42B8D3C8D4D8D5E8DC21601
:1010C000D306E406F50648F129C08F8F8A8DC80E35
:1010D000D11CE11CF11CCB8EDC8EED8EFE8E1DC072
:1010E0002F5F3F4F2430310571F60F5F1F4F0430E3
:1010F000110509F0BFCF8B8D9C8DAD8DBE8D0097F6
:10110000A105B10551F08C159D05AE05BF0528F46C
:101110001B8E1C8E1D8E1E8E1F8E80E0DF91CF9148
:101120001F910F91FF90EF90DF90CF900895CF9295
:10113000DF92EF92FF920F931F93DF93CF93CDB780
:10114000DEB7C65DD0400FB6F894DEBF0FBECDBF90
:101150008C01262F673364F462330CF087C06A3247
:1011600009F459C0613351F0633209F079C15BC0B1
:10117000673309F16A330CF073C178C088E4E82E54
:1011800083E0F82EE00EF11EF801E45BFC4F0190C5
:10119000F081E02DD7016D917D918D919C91208101
:1011A0003181428153810E944B80F70160837183BA
:1011B0008283938357C1B8E4EB2EB3E0FB2EE80E95
:1011C000F91EFC01E45BFC4F0190F081E02DD7019A
:1011D0006D917D918D919C912081318142815381CE
:1011E0000E944A80262F372F482F592FF70120833E
:1011F00031834283538320E030E0A9010E94AF8015
:1012000087FF30C180E090E0DC01F70180839183AB
:10121000A283B38327C1FC01EE5AFC4F808191E089
:10122000892780831FC1ACE4EA2EA3E0FA2EE80EE2
:10123000F91ED701ED91FC911197CF0104968D9382
:101240009C93648175818681978120E030E0A901BB
:101250000E94AF80882309F005C1F801E25BFC4FD2
:1012600080819181F70191838083FCC0C090B90394
:10127000D090BA03C60160E070E0CA52DF4F288305
:10128000C65DD0400E94A949CA52DF4F2881C65D81
:10129000D040882309F4F7C0E5C084E590E0A0E0E1
:1012A000B0E08EA39FA3A8A7B9A782E090E09CA37B
:1012B0008BA3C601B701CFC081E090E0A0E0B0E011
:1012C0008DA79EA7AFA7B8AB82E090E09BA78AA7A7
:1012D000F801E85BFC4F6091CE037091CF038091E1
:1012E000D0039091D10320813181428153810E94AA
:1012F0004A801DC081E090E0A0E0B0E08DA79EA7ED
:10130000AFA7B8AB82E090E09BA78AA7F801E85BA3
:10131000FC4F6091CE037091CF038091D0039091E8
:10132000D10320813181428153810E944B80698B9E
:101330007A8B8B8B9C8B81E090E09F878E8787C018
:1013400081E090E0A0E0B0E08DA79EA7AFA7B8AB8A
:1013500082E090E09BA78AA7F801E85BFC4F6091D0
:10136000CA037091CB038091CC039091CD0320816F
:101370003181428153810E944A801DC081E090E00A
:10138000A0E0B0E08DA79EA7AFA7B8AB82E090E049
:101390009BA78AA7F801E85BFC4F6091CA03709194
:1013A000CB038091CC039091CD0320813181428188
:1013B00053810E944B806A877B878C879D8781E061
:1013C00090E098878F8343C081E090E0A0E0B0E098
:1013D0008DA79EA7AFA7B8AB82E090E09BA78AA796
:1013E000F801E85BFC4F6091D2037091D3038091C8
:1013F000D4039091D50320813181428153810E9491
:101400004B801DC081E090E0A0E0B0E08DA79EA7DA
:10141000AFA7B8AB82E090E09BA78AA7F801E85B92
:10142000FC4F6091D2037091D3038091D4039091CB
:10143000D50320813181428153810E944A80688F87
:10144000798F8A8F9B8F81E090E09E8B8D8BC60178
:10145000BE016F5F7F4F40E050E00E94C34302C077
:1014600080E001C081E0CA52DF4F0FB6F894DEBFC2
:101470000FBECDBFCF91DF911F910F91FF90EF90E5
:10148000DF90CF9008957E010894E11CF11CC70104
:10149000CA52DF4F2883C65DD0400E943806CA5228
:1014A000DF4F2881C65DD040253309F4F6CE2633C0
:1014B0004CF4233309F488CF24330CF041CF22338A
:1014C00031F6FACE283309F415CF293309F49ACF2F
:1014D000263309F0BCCF52CF4FB7F894FC012281DC
:1014E00033814FBFC9010895FC01A085B1858D915D
:1014F000B187A08726813781A217B30721F4248101
:101500003581318720879FB7F8942281338121501C
:101510003040338322839FBF0895FC0120853185AD
:101520000BC02F5F3F4F868197812817390711F431
:1015300024813581615070406115710591F7C901B1
:101540000895CF93DF93EC010E946C0A41E028815B
:1015500039818217930708F440E0842FDF91CF91FF
:1015600008950F931F93DF93CF9300D00F92CDB7C1
:10157000DEB7AC018C0102541E4FC80149835A8367
:101580006B830E94A10A49815A816B818823A9F744
:10159000FA01E853FE4FA081B1816C938081918163
:1015A000019691838083DA01AC53BE4F2D913C911B
:1015B00011978217930741F4DA01AE53BE4F8D9114
:1015C0009C911197918380832FB7F894FA01E0548E
:1015D000FE4F808191810196918380832FBFFA0114
:1015E000808191818230910531F48091D1008062B7
:1015F0008093D10005C08091C10080628093C100BA
:101600000F900F900F90CF91DF911F910F91089540
:10161000FF920F931F93CF93DF93EC018B01FF2475
:1016200003C0CE010E94B10AF801EF0DF11D6081E7
:10163000F3946623B1F7DF91CF911F910F91FF9043
:1016400008950F931F93CF93DF93EC018B0103C099
:10165000CE010E94B10AF8010F5F1F4F649166230B
:10166000B9F7DF91CF911F910F9108950F931F93B9
:10167000DF93CF9300D0CDB7DEB78C0189519D4F5A
:101680004A8369830E94A10A4A816981882309F0FB
:101690004DC0F801EF50FD4FA081B1816C93808166
:1016A0009181019691838083D801A351BD4F2D91E3
:1016B0003C9111978217930739F4D801A551BD4F7A
:1016C0008D919C91918380832FB7F894F801E75115
:1016D000FD4F808191810196918380832FBF980176
:1016E00023503D4FD901ED91FC9111974193ED931A
:1016F000FC93C80187509D4FDC018D919C911197FF
:10170000E817F90741F4F801E950FD4F8081918114
:10171000F901918380832FB7F894F801EB50FD4FC6
:10172000808191810196918380832FBF0F900F90CC
:10173000CF91DF911F910F91089540E00E94360BE9
:101740000895662311F030E301C030E2442311F024
:1017500068E001C060E0632B222311F024E001C0A7
:1017600020E0622B0E949D0B0895662311F05CE03F
:1017700001C058E0442311F032E001C030E0652F91
:10178000622B632B0E949D0B0895662311F026E0C7
:1017900001C024E0622F642B0E949D0B089561E03C
:1017A0000E949D0B089562E00E949D0B0895606861
:1017B0000E949D0B0895DC019796ED91FC919897FE
:1017C000E40FF11D208170E0620F711D0E94D70BA4
:1017D000089560640E949D0B089541E00E94360BBD
:1017E00008950F931F93CF93DF93EC01062F172FCC
:1017F00003C0CE010E94ED0BF80161918F016623B9
:10180000C1F7DF91CF911F910F9108950F931F930F
:10181000CF93DF938C01CB01BA01E801C150DD4FBA
:10182000AE012AE030E00E944F85C801BE010E944F
:10183000F10BDF91CF911F910F9108950F931F939B
:10184000CF93DF938C01EA010E94F10BAE01662772
:1018500057FD6095762FC8010E94060CDF91CF914D
:101860001F910F910895EF92FF920F931F93CF93C3
:10187000DF93EC0179018A010E94F10BCE01B801DE
:10188000A7010E94060CDF91CF911F910F91FF904D
:10189000EF900895EF92FF920F931F93CF93DF93F2
:1018A0007C01CB01BA01E701C150DD4F422F202F4F
:1018B0008E010E945F83C701BE010E94F10BDF9180
:1018C000CF911F910F91FF90EF900895EF92FF92AB
:1018D0000F931F93CF93DF93EC0179018A010E944C
:1018E000F10BCE01B801A70125E001E00E944A0CEE
:1018F000DF91CF911F910F91FF90EF9008950F937B
:101900001F93CF93DF93EC018A010E94F10BCE016C
:10191000B8010E94F10BDF91CF911F910F910895B3
:101920000F931F93CF93DF93EC018B0103C0CE0184
:101930000E94ED0BF8010F5F1F4F64916623B9F70A
:10194000DF91CF911F910F910895AF92BF92CF92E7
:10195000DF92EF92FF920F931F93CF93DF93FC01DF
:10196000EB56FC4F20813181243031059CF1EC0194
:101970002596CE0160E043E00E94DB0B0E94B1346B
:10198000882319F1CE016BE471E00E94900C0E9453
:1019900011367B018C010E9424365B016C01C80169
:1019A000B70124E630E040E050E00E94BC82A6018E
:1019B00095010E940283A90160E070E0CE010E94BF
:1019C000060CCE0169E471E003C0CE0167E371E06B
:1019D0000E94900CDF91CF911F910F91FF90EF909B
:1019E000DF90CF90BF90AF900895AF92BF92CF920B
:1019F000DF92EF92FF920F931F93CF93DF935C01DF
:101A0000EC012596CE010E94CF0B8501005B1C4F97
:101A1000F80140815181CE0160E072E00E941E0C0D
:101A2000CE016AE040E00E94DB0BE090E803F0901A
:101A3000E903F801808191812CE3C22ED12C8C9D89
:101A4000F0018D9DF00D9C9DF00D1124EE0DFF1DFC
:101A5000658976898789908D0E941B819B01AC01E5
:101A6000CE0166E072E00E94330CCE0160E041E0FE
:101A70000E94DB0BF801808191818C9DF0018D9D8E
:101A8000F00D9C9DF00D1124EE0DFF1D658D768DE2
:101A9000878D90A10E944C819B01AC01CE016BE02F
:101AA00072E00E94660CCE016AE041E00E94DB0B0E
:101AB000F801808191818C9DF0018D9DF00D9C9DA0
:101AC000F00D1124EE0DFF1D618D728D838D948DAF
:101AD0000E941B819B01AC01CE0160E172E00E947B
:101AE000330CCE0160E042E00E94DB0BC7010E9494
:101AF000701B9B01AC01CE0165E172E00E94660C97
:101B0000CE0169E172E00E94F10BCE0169E042E092
:101B10000E94DB0BF801808191818C9DF0018D9DED
:101B2000F00D9C9DF00D1124EE0DFF1D25853685D1
:101B300047855089CE016BE172E00E94660CC501B9
:101B40000E94A50CDF91CF911F910F91FF90EF9014
:101B5000DF90CF90BF90AF900895CF92DF92EF9239
:101B6000FF920F931F93CF93DF936C01653309F4BA
:101B70006AC26633C4F46133D9F1623354F46A3211
:101B800009F428C2603309F45BC2633209F066C20B
:101B900044C2633309F45AC0FC01E05BFC4F643378
:101BA0000CF011C16DC1683309F4BEC169333CF456
:101BB000663309F43FC1673309F050C28CC0693302
:101BC00009F4C6C0862F8154843008F047C27727B5
:101BD00067FD709561547040F601E05BFC4F8081B9
:101BE00091816817790709F439C27183608340C213
:101BF000C091E803D091E903FC01E05BFC4F408118
:101C000051812CE330E0429FC001439F900D529FD1
:101C1000900D1124C80FD91F6D897E898F89988DE9
:101C200020E030E048EC52E40E944A808B01F82E1C
:101C3000E92E9701712F832F922F20E030E048EC9E
:101C400052E40E94FE8187FD09C22EC0C091E803C4
:101C5000D091E903FC01E05BFC4F408151812CE312
:101C600030E0429FC001439F900D529F900D112480
:101C7000C80FD91F6D897E898F89988D20E030E04B
:101C800048EC52E40E944B808B01F82EE92E97011C
:101C9000712F832F922F298D3A8D4B8D5C8D0E9451
:101CA000AF8018160CF4DAC19701602F712F832FC3
:101CB0009E2D20E030E0A9010E94AF8018160CF0A4
:101CC000D7C19701802F912FA32FBE2D8D8B9E8B77
:101CD000AF8BB88FCDC1C091E803D091E903FC016F
:101CE000E05BFC4F408151812CE330E0429FC0011A
:101CF000439F900D529F900D1124C80FD91F698DDD
:101D00007A8D8B8D9C8D20E030E048EC52E40E946F
:101D10004A808B01F82EE92E9701712F832F922F85
:101D20002D893E894F89588D0E94FE8187FD96C17D
:101D30009701602F712F832F922F20E030E0A901AF
:101D40000E94AF8018160CF093C1502F412F31C064
:101D5000C091E803D091E903FC01E05BFC4F4081B6
:101D600051812CE330E0429FC001439F900D529F70
:101D7000900D1124C80FD91F698D7A8D8B8D9C8D84
:101D800020E030E048EC52E40E944B80162F072FF1
:101D9000F82EE92EA8019701652F742F832F922F1B
:101DA00020E030E0A9010E94AF8018160CF060C15D
:101DB000A8019701852F942FA32FBE2D898F9A8F6D
:101DC000AB8FBC8F55C1C091E803D091E90340812E
:101DD00051812CE330E0429FC001439F900D529F00
:101DE000900D1124C80FD91F6D8D7E8D8F8D98A1F8
:101DF0000E944C8120E030E048EC52E40E944A808E
:101E0000162F072FF82EE92EA8019701652F742FA2
:101E1000832F922F20E030E048EC52E40E94FE81B4
:101E200087FD1CC1CE01F80197014F2F5E2F632F54
:101E3000722F23C0C091E803D091E903FC01E05B5D
:101E4000FC4F408151812CE330E0429FC001439F11
:101E5000900D529F900D1124C80FD91F6D8D7E8D4E
:101E60008F8D98A10E944C8120E030E048EC52E434
:101E70000E944B80AB01BC01CE010E94B407F8C0A8
:101E8000808191818230910519F1833091051CF494
:101E900097FF06C0EDC08330910509F0E9C02FC05F
:101EA000C091E803D091E9034CE350E0849F900196
:101EB000859F300D949F300D1124C20FD31F688170
:101EC00079818A819B8120E030E040E85FE30EC0A9
:101ED000C091E803D091E903C858DF4F6881798148
:101EE0008A819B812DEC3CEC4CEC5DE30E944A80A6
:101EF0009B01AC01288339834A835B83B9C08091FD
:101F0000E8039091E903EC01CC54DF4F8F539F4FCE
:101F1000FC01608171818281938120E030E040E2A8
:101F200051E40E944B8050C0FC01E05BFC4F80817B
:101F300091818230910519F1833091051CF497FF4E
:101F400006C096C08330910509F092C029C0C091A7
:101F5000E803D091E9034CE350E0849F9001859F12
:101F6000300D949F300D1124C20FD31F68817981E9
:101F70008A819B8120E030E040E85FE30EC0C091A1
:101F8000E803D091E903C858DF4F688179818A81DD
:101F90009B812DEC3CEC4CEC5DE30E944B80A8CF88
:101FA0008091E8039091E903EC01CC54DF4F8F530B
:101FB0009F4FFC01608171818281938120E030E03C
:101FC00040E251E40E944A80AB01BC01CE010E9474
:101FD0008F074EC0C091E803D091E903CE010E9463
:101FE000701B20E030E040EA50E40E944A807B0110
:101FF0008C017F2D912F20E030E048EC51E40E94CD
:10200000AF8087FF04C0EE24FF2408EC11E4CE016A
:102010004E2D5F2D602F712F10C0C091E803D0911D
:10202000E903CE010E94701B20E030E040EA50E45A
:102030000E944B80AB01BC01CE010E945A1B18C00C
:102040000E94ED4C15C0E091B903F091BA03EB5436
:10205000F34F808191E0892780830AC080E0DF917F
:10206000CF911F910F91FF90EF90DF90CF90089547
:10207000C6010E94F50C81E0F2CFFC01EC5BFC4F45
:10208000208131812130310511F40E94A50C089581
:10209000FC01EC5BFC4F208131812430310511F4CF
:1020A0000E94A50C08950F931F93CF93DF938C018B
:1020B0000E94B134882399F0E8012596CE0167E7A4
:1020C00071E00E94900CCE0160E041E00E94DB0BC9
:1020D0000E94C735BC01CE010E94F10B31C00E94A5
:1020E000C735FC018081882311F40E94D535E801B1
:1020F0002596CE0168E671E00E94900CCE0160E06A
:1021000041E00E94DB0BCE0165E671E00E94900C7D
:102110000E94C735BC01CE010E94F10BF801EB56BD
:10212000FC4F808191818330910554F0CE0160E0B5
:1021300042E00E94DB0BCE0166E571E00E94900C4C
:10214000C8010E94A50CDF91CF911F910F910895B6
:10215000CF93DF93EC01FC01EC5BFC4F81E090E05E
:1021600091838083CE0105960E94CF0BCE010E9401
:102170005310DF91CF9108950F931F93DF93CF9367
:102180000F92CDB7DEB78C0169830E94B1346981AB
:10219000882371F4633229F0663351F40E94D535F7
:1021A00002C00E94F935C8010E94A81081E001C058
:1021B00080E00F90CF91DF911F910F910895CF9301
:1021C000DF93FC01EC5BFC4F23E030E031832083A4
:1021D000EC012596CE010E94CF0BCE0162E871E0A2
:1021E0000E94900CDF91CF910895EF92FF920F9390
:1021F0001F93CF93DF938C01EC012596CE010E94B3
:10220000CF0BCE010E94D30BF801ED56FC4F80811D
:1022100091818131910544F0CE0167E271E00E9425
:10222000900CCE0168E007C0CE016DE171E00E9424
:10223000900CCE0162E040E00E94DB0BE090EA03EC
:10224000F090EB03C7010E942A61AC0184E04030AA
:10225000580731F4CE0164E171E00E94900C24C073
:10226000662757FD6095762FCE010E94060CF80177
:10227000ED56FC4F808191818131910514F06BE026
:1022800001C066E0CE0140E00E94DB0BCE0161E1BF
:1022900071E00E94900CC7010E943661AC0160E0C1
:1022A00070E0CE010E94060CCE0160E041E00E9489
:1022B000DB0BF801ED56FC4F808191818131910556
:1022C00044F0CE0161E071E00E94900CCE0168E024
:1022D00007C0CE0167EF70E00E94900CCE0162E073
:1022E00041E00E94DB0BE090EA03F090EB03C701B2
:1022F0000E943061AC0184E04030580731F4CE01D7
:102300006EEE70E00E94900C24C0662757FD609529
:10231000762FCE010E94060CF801ED56FC4F80810D
:1023200091818131910514F06BE001C066E0CE012E
:1023300041E00E94DB0BCE016BEE70E00E94900C3E
:10234000C7010E943C61AC0160E070E0CE010E94D8
:10235000060CF801ED56FC4F808191818131910589
:1023600014F060E101C06CE0CE0140E00E94DB0BA4
:10237000CE0160E00E94ED0BCE0162E00E94ED0B09
:10238000CE0164E00E94ED0BCE0166E00E94ED0BF1
:10239000F801ED56FC4F808191818131910514F057
:1023A00060E101C06CE0CE0141E00E94DB0BCE0198
:1023B00061E00E94ED0BCE0163E00E94ED0BCE01C7
:1023C00065E00E94ED0BCE0167E00E94ED0BC801B5
:1023D0000E94A50CDF91CF911F910F91FF90EF907C
:1023E0000895CF93DF93EC01FC01EC5BFC4F11826D
:1023F000108205960E94CF0BCE010E94F510DF914E
:10240000CF910895EF92FF920F931F93CF93DF9395
:102410008C01EC0125962091CA033091CB034091A9
:10242000CC035091CD03CE016CE272E00E94660CA9
:10243000CE0168E040E00E94DB0B2091CE0330919A
:10244000CF034091D0035091D103CE016FE272E0EF
:102450000E94660CCE0160E041E00E94DB0B2091FF
:10246000D2033091D3034091D4035091D503CE01D0
:1024700062E372E00E94660CF801EB56FC4F80812B
:10248000918138E4E32E33E0F32EE00EF11E833029
:1024900091050CF457C0CE0168E041E00E94DB0BCF
:1024A0002091D6033091D7034091D8035091D9039E
:1024B000CE0165E372E00E94660CCE0160E042E06E
:1024C0000E94DB0BF7012081318142815381CE01D3
:1024D00068E372E00E94660CF801ED56FC4F8081C3
:1024E0009181F801E45BFC4F813191055CF0019032
:1024F000F081E02D2081318142815381CE016EE354
:1025000072E00AC00190F081E02D2081318142818A
:102510005381CE0164E472E00E94660CCE0160E05B
:1025200043E00E94DB0BF801EE5AFC4F80818823C8
:1025300019F040E252E002C044E252E0CE0166E40B
:1025400072E027C0F7012081318142815381CE01A1
:1025500060E572E00E94660CF801E45BFC4F0190BC
:10256000F081E02D2081318142815381CE0164E4EC
:1025700072E00E94660CF801EE5AFC4F80818823BD
:1025800019F048E252E002C04AE252E0CE0163E5AF
:1025900072E00E947F0CF801ED56FC4F8081918122
:1025A0008131910554F1CE0160E140E00E94DB0BE6
:1025B000CE0160E00E94ED0BCE0162E00E94ED0BC7
:1025C000CE0164E00E94ED0BCE0166E00E94ED0BAF
:1025D000CE0160E141E00E94DB0BCE0161E00E9490
:1025E000ED0BCE0163E00E94ED0BCE0165E00E9491
:1025F000ED0BCE0167E00E94ED0BDF91CF911F91B3
:102600000F91FF90EF900895CF93DF93EC01FC01C1
:10261000EC5BFC4F82E090E091838083CE010596D5
:102620000E94CF0BCE010E940212DF91CF9108953C
:10263000FC01EC5BFC4F208131812617370721F12B
:1026400062307105B9F0633071053CF461157105B4
:1026500059F061307105C1F40AC06330710569F049
:102660006430710589F40CC00E94F11108950E9434
:10267000A81008950E94041308950E94DF10089581
:10268000718360830E94F50C0895623469F06334AD
:102690001CF46134A9F405C0633449F0643481F456
:1026A0000BC060E070E005C061E070E002C062E075
:1026B00070E00E941813089564E070E00E941813FF
:1026C0000895CF93DF93EC01FC01EC5BFC4F80811C
:1026D00091818230910539F4CE0105960E94D30B89
:1026E000CE010E940212DF91CF910895EF92FF92E6
:1026F0000F931F93CF93DF93EC017A01660F660F60
:10270000660F0E94E90B00E010E0CE01F701619135
:102710007F010E94ED0B0F5F1F4F08301105A9F7D5
:10272000EFA1F8A5CE0160810E94D70BDF91CF9178
:102730001F910F91FF90EF900895CF92DF92EF924B
:10274000FF920F931F93DF93CF9300D0CDB7DEB7E7
:102750008C01C090EA03D090EB03C6010E942A616D
:102760007C01C6010E9436619701281B390BC90103
:1027700062E070E00E94EF82683071052CF43FEF58
:10278000683F730724F005C067E070E002C068EF9F
:102790007FEF47E050E0461B570BD801AD57BC4FC9
:1027A00080E090E02AC02081332727FD3095220F5A
:1027B000331FE22E20836F5F7F4F208924FF03C0E9
:1027C0002E2D2160208320812F712083709663300D
:1027D000710549F72C91332727FD3095220F331FC0
:1027E0002C938417950711F421602C932C912F7151
:1027F0002D9301968031910541F0FC01ED5AFC4F7B
:10280000E00FF11F60E070E0CECF20E030E0CC249C
:10281000DD2445E0E42EF12CE00EF11EA9014D5A15
:102820005C4F400F511FC701B60129833A830E94B4
:1028300076130894C11CD11C29813A81285F3F4F2F
:1028400088E0C816D10451F70F900F90CF91DF9117
:102850001F910F91FF90EF90DF90CF900895EF922E
:10286000FF920F931F93CF93DF938C01FC01EC5BDE
:10287000FC4F80819181009709F000C1F801ED566D
:10288000FC4F80819181E8012596813191056CF0A2
:10289000CE0168E040E00E94DB0BCE0160EC71E00D
:1028A0000E94900CCE0168E00CC0CE0162E040E0D6
:1028B0000E94DB0BCE0167EB71E00E94900CCE0111
:1028C00062E040E00E94DB0BE090EA03F090EB0353
:1028D000C7010E942A61AC01E801259684E04030DE
:1028E000580731F4CE016EEA71E00E94900C24C0CA
:1028F000662757FD6095762FCE010E94060CF801E1
:10290000ED56FC4F808191818131910514F06BE08F
:1029100001C066E0CE0140E00E94DB0BCE016BEA15
:1029200071E00E94900CC7010E943661AC0160E02A
:1029300070E0CE010E94060CE8012596CE0160E011
:1029400041E00E94DB0BF801ED56FC4F8081918144
:10295000813191056CF0CE0168E041E00E94DB0B13
:10296000CE0161EA71E00E94900CCE0168E00CC0DB
:10297000CE0162E041E00E94DB0BCE0168E971E02C
:102980000E94900CCE0162E041E00E94DB0BE090DF
:10299000EA03F090EB03C7010E943061AC0184E0D0
:1029A0004030580731F4CE016FE871E00E94900C7E
:1029B00024C0662757FD6095762FCE010E94060C35
:1029C000F801ED56FC4F808191818131910514F021
:1029D0006BE001C066E0CE0141E00E94DB0BCE015E
:1029E0006CE871E00E94900CC7010E943C61AC0150
:1029F00060E070E0CE010E94060CF801ED56FC4F3D
:102A0000808191818131910514F060E101C06CE019
:102A1000CE0140E00E94DB0BCE0160E00E94ED0B96
:102A2000CE0162E00E94ED0BCE0164E00E94ED0B4E
:102A3000CE0166E00E94ED0BF801ED56FC4F80815F
:102A400091818131910514F060E101C06CE0CE010B
:102A500041E00E94DB0BCE0161E00E94ED0BCE0154
:102A600063E00E94ED0BCE0165E00E94ED0BCE010C
:102A700067E00E94ED0BC8010E94A50CDF91CF9189
:102A80001F910F91FF90EF9008950E946C0A21E032
:102A9000009709F020E0822F0895FC012FB7F894E9
:102AA00084819581918780879387828713821282A0
:102AB0002FBF0895FC012FB7F894848195819187E9
:102AC000808793878287138212822FBF0895EF92A7
:102AD000FF920F931F93CF93DF93EC018E8D9F8D09
:102AE0002FEF8F3F920709F461C0CE0189519D4FAE
:102AF0000E944D15CE018D509D4F0E945A15CE015A
:102B000061E00E94B605CE0160E00E94BD058E0125
:102B10000D5F1F4FC80161E00E94B605C80160E06B
:102B20000E94BD058E010A5F1F4FC80161E00E942F
:102B3000B605C80160E00E94BD0594E0E92EF12CC5
:102B40008701000F111F0E0D1F1D075F1F4F0C0F78
:102B50001D1FC80160E00E94BD05C80161E00E9420
:102B6000B6050894E11CF11C28E0E216F10441F7D7
:102B7000CE010E94330741E08DA1823008F440E08D
:102B8000CE0160E020E00E94A10BCE0161E040E0B8
:102B900020E00E94B50BCE010E94CF0BCE0160E079
:102BA00040E00E94C50BCE010E94CF0BDF91CF9178
:102BB0001F910F91FF90EF9008950F931F93CF9364
:102BC000DF93EC018C010B5F1F4FC8010E9467155A
:102BD000C8010E94CF0BCE010E94F111CE010E94CC
:102BE000F510DF91CF911F910F9108950F931F93CF
:102BF000CF93DF93EC01663311F167333CF4633319
:102C000079F0643381F0613399F507C0693341F19C
:102C1000613459F1673361F51EC085E090E01DC055
:102C200085E090E01FC00091EA031091EB03C8011A
:102C300060E070E00E941E618823C9F31FC000910C
:102C4000EA031091EB03C80160E070E00E94246188
:102C50008823C9F313C08BEF9FEF0E943D050EC080
:102C60008BEF9FEF0E945A0509C00E94DD1506C038
:102C700080E0DF91CF911F910F910895CE010596CD
:102C80000E94CF0BCE010E94F51081E0F2CF1F937E
:102C9000CF93DF93EC01162FFC01EC5BFC4F80819E
:102CA00091818130910589F0823091051CF4009763
:102CB00041F018C08230910561F08430910591F4A3
:102CC0000CC0CE010E94F6150BC0CE010E94BC10B4
:102CD00007C0CE010E94970803C0CE010E94AD0D2F
:102CE000882321F4CE01612F0E944513DF91CF91FB
:102CF0001F910895FC01208531850BC02F5F3F4F48
:102D0000868197812817390711F424813581615014
:102D100070406115710591F7C9010895FC01A08506
:102D2000B1858D91B187A08726813781A217B3071E
:102D300021F424813581318720879FB7F89422813F
:102D4000338121503040338322839FBF0895AF9257
:102D5000BF92CF92DF92EF92FF920F931F93CF9388
:102D6000DF93EC0147EEE42E42E0F42EE80EF91E6C
:102D7000C7010E944515882309F05DC08AA58E0110
:102D80000D501D4F882379F4C70160E070E00E9468
:102D90008D0AFC01A080C80160E070E00E947A16F4
:102DA000FC01008108C0C7010E94740AA82EC80156
:102DB0000E948E16082FCE01039660E00E94BD058A
:102DC000CE01602F0E94BD05EE24FF24BB2434E019
:102DD000C32ED12CCE0CDF1C8601000F111F0C0D51
:102DE0001D1D075F1F4F0C0F1D1FC80161E00E94D2
:102DF000B6058AA581116701B50102C07595679571
:102E0000CA94E2F761707070C8010E94BD05089411
:102E1000E11CF11CF4E0EF16F104C9F68AA591E07B
:102E200089278AA72696CE0161E00E94BD05CE01C2
:102E300060E00E94BD05DF91CF911F910F91FF903F
:102E4000EF90DF90CF90BF90AF900895CF93DF9336
:102E5000EC0189A5882379F0CE0189519D4F0E940C
:102E60004515882341F4CE010E947C06882319F47D
:102E7000CE010E94A716DF91CF910895EF92FF92A5
:102E80000F931F93CF93DF93EC0105960E942617B3
:102E9000CE018C5D9C4F0E942408182F882339F0A6
:102EA0008C81181721F0CE01612F0E9447161C83D8
:102EB0000E945D3A288139814A815B817B018C01C6
:102EC000E21AF30A040B150BA8019701213D07E054
:102ED000300700E0400700E0500798F068837983EE
:102EE0008A839B83CE010E949D13CE010E942F14E2
:102EF000CE010E943D10CE010E944810CE010E94DA
:102F00006113DF91CF911F910F91FF90EF90089582
:102F1000EF92FF920F931F93CF93DF93C091B9036A
:102F2000D091BA03E090E603F090E7030091EA0342
:102F30001091EB03CE010E94D640CE010E94D640F4
:102F4000CE010E94FB3DC7010E949F39C8010E942B
:102F500083620E94C6638CEE93E00E943E170E943B
:102F6000E136E8CF78940E94023A0E940E350E9422
:102F7000B9352091E6033091E703882331F0C90188
:102F800067E572E00E94080B07C0C90165E672E0C0
:102F90000E94080B0E94D8628091E6039091E7039B
:102FA00064EE70E00E94210B0E94881780E090E0A0
:102FB00008958091E10A882369F489EE9AE040E05F
:102FC00051EE60E070E020E030E00E94C73781E021
:102FD0008093E10A89EE9AE00895FC0120E030E058
:102FE000A90120833183428353832483358346831D
:102FF00057832087318742875387248735874687C1
:1030000057870895DC01ED91FC911197318181E0A2
:1030100090E002C0880F991F6A95E2F7282F20954B
:103020002323442309F480E0822B81830895DC016B
:10303000ED91FC911197328181E090E002C0880F00
:10304000991F6A95E2F7282F20952323442309F43A
:1030500080E0822B82830895462FFC0162816F708D
:103060000E948C050895462FFC0162816F700E94BA
:10307000A1050895EF92FF920F931F93FC01CB01DE
:10308000BA0125853685478550890E9402829B01B9
:10309000AC0160EC71EE84E69EE40E94B3807B019B
:1030A0008C017F2D912F20E034E244E75BE40E9405
:1030B000FE8118162CF4EE2484E2F82E04E71BE4BB
:1030C0006E2D7F2D802F912F0E9420811F910F91B7
:1030D000FF90EF900895EF92FF920F931F93CF937D
:1030E000DF93EC017A018B01CB01BA0120E030E0E3
:1030F000A9010E94AF80181664F4ED86FE860F8742
:10310000188BC801B7010E942081698B7A8B8B8B49
:103110009C8BDF91CF911F910F91FF90EF900895BD
:10312000EF92FF920F931F93CF93DF93EC017A01FD
:103130008B01CB01BA0120E030E0A9010E94AF80F1
:10314000181644F4C801B7010E9420816D8F7E8F4C
:103150008F8F98A3DF91CF911F910F91FF90EF90E8
:103160000895FC0122A933A9FFEF2F3F3F0721F06B
:10317000C29661E00E94BD050895FC0122A933A911
:10318000FFEF2F3F3F0721F0C29660E00E94BD0590
:1031900008954F925F926F927F928F929F92AF921B
:1031A000BF92CF92DF92EF92FF920F931F93CF9334
:1031B000DF93EC014A015B01C901B8012601370127
:1031C00020E030E040E752E40E94B3807B018C01B4
:1031D000C501B40120E030E040E752E40E94B38032
:1031E000D62EC72EB82EA92E6E2D7F2D802F912F73
:1031F0002E2D3F2D402F512F0E9402827B018C01EA
:10320000A6019501652F742F832F922FD601F5010A
:103210002B2F3A2F4F2F5E2F0E9402829B01AC0171
:10322000C801B7010E944A807B018C01C301B20131
:10323000A30192010E944B809B01AC01C801B70120
:103240000E94B3802D853E854F8558890E94028259
:103250000E942081DF91CF911F910F91FF90EF90FD
:10326000DF90CF90BF90AF909F908F907F906F90A6
:103270005F904F9008954F925F926F927F928F92DE
:103280009F92AF92BF92CF92DF92EF92FF920F93F5
:103290001F93CF93DF93EC01CB01BA014801590191
:1032A00020E030E040E752E40E94B380072F182F5F
:1032B000492E762F272F302F412F542DCA01B901C7
:1032C0000E9402822B013C01C501B401A5019401B9
:1032D0000E944B804B015C01C701B6010E944C81EA
:1032E0002D853E854F8558890E94B3809B01AC0196
:1032F000C501B4010E9402829B01AC01C301B2016D
:103300000E944B800E94698220E030E040E752E456
:103310000E940282DF91CF911F910F91FF90EF9059
:10332000DF90CF90BF90AF909F908F907F906F90E5
:103330005F904F900895EF92FF920F931F93CF935A
:10334000DF93EC0189859A85AB85BC850097A10543
:10335000B10509F4E2C08C81882309F444C0E8ADCA
:10336000F9AD8FEFEF3FF80709F48FC0808190E04F
:103370002AAD2F7002C0959587952A95E2F7817046
:10338000907020919003281709F47FC0EFA0F8A453
:1033900009A51AA5C801B70120E030EA4CE056E4BF
:1033A0000E94AF8087FD43C0E880F9800A811B81BD
:1033B0006D817E818F81988529853A854B855C85D5
:1033C000621B730B840B950B0E944C812D853E85EF
:1033D0004F8558890E94B3809B01AC01C801B70199
:1033E0000E944B8047C0EDA9FEA98FEFEF3FF80781
:1033F00009F44BC0808190E02FA92F7002C09595F1
:1034000087952A95E2F78170907020919003281794
:10341000E1F1EBA0FCA00DA11EA1C801B70120E0C5
:1034200030EA4CE056E40E94AF8087FF05C0E88296
:10343000F9820A831B8324C0E880F9800A811B81FA
:103440006D817E818F81988529853A854B855C8544
:10345000621B730B840B950B0E944C812D853E855E
:103460004F8558890E94B3809B01AC01C801B70108
:103470000E944A809B01AC01288339834A835B8385
:1034800019861A861B861C8648C08E01055D1F4F53
:10349000C80161E00E94BD05C80160E00E94BD0551
:1034A00089859A85AB85BC850197A109B109898772
:1034B0009A87AB87BC8789859A85AB85BC85009741
:1034C000A105B10551F5E880F9800A811B816D8164
:1034D0007E818F8198850E944C812D853E854F8508
:1034E00058890E94B3802C81222329F020E030E00B
:1034F00040E85FE304C020E030E040E85FEB0E947A
:1035000002829B01AC01C801B7010E944B809B0164
:10351000AC01288339834A835B83DF91CF911F916C
:103520000F91FF90EF900895DF92EF92FF920F932B
:103530001F93CF93DF93EC01CB01BA01D22E2881E8
:1035400039814A815B810E94AF808823F9F4E114BC
:10355000F1040105110519F0CE010E94BD18DC82AD
:10356000ED82FE820F831887E986FA860B871C8717
:103570002C81CE018E96222321F069A921E06227B9
:1035800001C069A90E94BD0581E001C080E0DF9112
:10359000CF911F910F91FF90EF90DF900895FC0164
:1035A00023AD222311F00E94B1180895CF93DF9329
:1035B000EC017CA76BA74F702DA5207F242B2DA796
:1035C0002FEF6F3F720749F0AB96CE0161E00E948A
:1035D000B605CE0160E00E94BD05DF91CF91089550
:1035E000CF93DF93EC017FA76EA74F7028A9207FB0
:1035F000242B28AB2FEF6F3F720749F0AE96CE0118
:1036000061E00E94B605CE0160E00E94BD05DF9139
:10361000CF910895CF93DF93EC017BAB6AAB4F70F2
:103620002CA9207F242B2CAB2FEF6F3F720749F082
:10363000E296CE0161E00E94B605CE0161E00E94F3
:10364000BD05DF91CF910895CF93DF93EC017EAB61
:103650006DAB4F702FA9207F242B2FAB2FEF6F3F27
:10366000720751F0E596CE0160E00E94B605CE01EA
:1036700060918F030E94BD05DF91CF910895CF9394
:10368000DF93EC0179AF68AF4F702AAD207F242B18
:103690002AAF2FEF6F3F720751F0E896CE0160E03E
:1036A0000E94B605CE0160918F030E94BD05DF9197
:1036B000CF910895CF93DF93EC01CB01BA0120E0C5
:1036C00030E048EC52E40E94B3809B01AC01CB5E39
:1036D000DE4F288339834A835B83DF91CF9108953E
:1036E000FC01EB5EFE4F608171818281938120E05D
:1036F00030E048EC52E40E9402820895CF93DF93B9
:10370000EC0180917703882339F48FE793E00E94DE
:10371000770581E08093770388819981AA81BB81B5
:1037200080937F0390938003A0938103B0938203DF
:103730008CAD9DADAEADBFAD8093830390938403FC
:10374000A0938503B0938603FE01E858FF4F808164
:103750009181A281B3818093870390938803A09382
:103760008903B0938A03CC54DF4F88819981AA8161
:10377000BB8180938B0390938C03A0938D03B093B4
:103780008E038FE793E0DF91CF910895CF93DF937E
:10379000E62FF72F60E070E0CCE3D0E026813781A0
:1037A0002115310591F021853285438554856C9F23
:1037B000D0016D9FB00D7C9FB00D1124A80FB91FD3
:1037C0002D933D934D935C9313976F5F7F4F379687
:1037D0006430710519F7DF91CF910895AF92BF92D0
:1037E000CF92DF92EF92FF920F931F93CF93DF93CD
:1037F000E62EE7017E01F72EE701082F192F94E04E
:10380000E92EF12C8E819F81009791F0A984BA84D2
:10381000CB84DC84C601B50120E030E0A9010E9420
:10382000AF8018162CF4F801A58AB68AC78AD08E04
:103830000894E108F1082796045C1F4FE114F10495
:1038400009F7DF91CF911F910F91FF90EF90DF90DB
:10385000CF90BF90AF900895AF92BF92CF92DF927A
:10386000EF92FF920F931F93CF93DF93E62EE70122
:103870007E01F72EE701082F192F24E0E22EF12C0C
:103880008E819F81009791F0A984BA84CB84DC84D7
:10389000C601B50120E030E0A9010E94AF801816F2
:1038A0002CF4F801A18EB28EC38ED48E0894E10858
:1038B000F1082796045C1F4FE114F10409F7DF912A
:1038C000CF911F910F91FF90EF90DF90CF90BF901D
:1038D000AF9008950895CF92DF92EF92FF920F93E9
:1038E0001F93CF93DF937C01C62EE6016E01D72E86
:1038F000E60100E010E03CE3C32ED12C8E819F81D5
:10390000009779F00C9DC0010D9D900D1C9D900DB0
:10391000112449855A856B857C858E0D9F1D0E94DB
:103920008F070F5F1F4F27960430110539F7DF917E
:10393000CF911F910F91FF90EF90DF90CF9008955E
:10394000CF92DF92EF92FF920F931F93CF93DF936B
:103950007C01C62EE6016E01D72EE60100E010E0E4
:103960004CE3C42ED12C8E819F81009779F00C9D61
:10397000C0010D9D900D1C9D900D112449855A8507
:103980006B857C858E0D9F1D0E94B4070F5F1F4FB6
:1039900027960430110539F7DF91CF911F910F91D0
:1039A000FF90EF90DF90CF900895AF92BF92CF92AB
:1039B000DF92EF92FF920F931F93CF93DF936C01EF
:1039C000E62EE7017E01F72EE70100E010E05CE360
:1039D000A52EB12C8E819F810097C1F089859A8593
:1039E0000E9494627C0189859A850E949D62482F7D
:1039F0000A9D90010B9D300D1A9D300D1124C601BA
:103A0000820F931FB70150E00E94D61A0F5F1F4F1D
:103A1000279604301105F1F6DF91CF911F910F9198
:103A2000FF90EF90DF90CF90BF90AF900895AF924E
:103A3000BF92CF92DF92EF92FF920F931F93CF939B
:103A4000DF936C01E62EE7017E01F72EE70100E02F
:103A500010E06CE3A62EB12C8E819F810097C1F0FF
:103A600089859A850E9494627C0189859A850E9445
:103A70009D62482F0A9D90010B9D300D1A9D300DBF
:103A80001124C601820F931FB70150E00E94F01A63
:103A90000F5F1F4F279604301105F1F6DF91CF918C
:103AA0001F910F91FF90EF90DF90CF90BF90AF905C
:103AB0000895AF92BF92CF92DF92EF92FF920F9351
:103AC0001F93CF93DF936C01E62EE7017E01F72E63
:103AD000E70100E010E07CE3A72EB12C8E819F81EE
:103AE0000097C1F089859A850E9494627C0189853E
:103AF0009A850E949D62482F0A9D90010B9D300D72
:103B00001A9D300D1124C601820F931FB70150E09A
:103B10000E940A1B0F5F1F4F279604301105F1F614
:103B2000DF91CF911F910F91FF90EF90DF90CF9099
:103B3000BF90AF900895AF92BF92CF92DF92EF9275
:103B4000FF920F931F93CF93DF936C01E62EE70153
:103B50007E01F72EE70100E010E0ECE3AE2EB12C81
:103B60008E819F810097C1F089859A850E94946219
:103B70007C0189859A850E949D62482F0A9D90014B
:103B80000B9D300D1A9D300D1124C601820F931F1D
:103B9000B70150E00E94241B0F5F1F4F279604308F
:103BA0001105F1F6DF91CF911F910F91FF90EF90EA
:103BB000DF90CF90BF90AF900895AF92BF92CF9219
:103BC000DF92EF92FF920F931F93CF93DF936C01DD
:103BD000E62EE7017E01F72EE70100E010E0FCE3AE
:103BE000AF2EB12C8E819F810097C1F089859A8577
:103BF0000E9494627C0189859A850E949D62482F6B
:103C00000A9D90010B9D300D1A9D300D1124C601A7
:103C1000820F931FB70150E00E943F1B0F5F1F4FA1
:103C2000279604301105F1F6DF91CF911F910F9186
:103C3000FF90EF90DF90CF90BF90AF900895CF931B
:103C4000DF93E62FF72FEC01E19624E030E0868148
:103C50009781009759F041E081859285A385B485CD
:103C60000097A105B10509F440E048832150304098
:103C70003796EC962115310551F7DF91CF910895D4
:103C8000CF93DF93E62FF72FEC01A39624E030E0EB
:103C900086819781009741F081859285A385B485BF
:103CA00088839983AA83BB83215030403796EC9652
:103CB0002115310569F7DF91CF910895CF93DF93F7
:103CC000E62FF72FEC01A79624E030E0868197815C
:103CD000009741F081859285A385B4858883998377
:103CE000AA83BB83215030403796EC9621153105CD
:103CF00069F7DF91CF910895CF93DF93E62FF72FE8
:103D0000EC01EB9624E030E086819781009759F032
:103D100041E081859285A385B4850097A105B10511
:103D200009F440E04883215030403796EC96211545
:103D3000310551F7DF91CF91089540938F03609340
:103D400090030895EF92FF920F931F93CF93DF9309
:103D50007C01C0E0D0E00CE310E0C09FC001C19F37
:103D6000900DD09F900D11248E0D9F1D0E94B118B3
:103D70002196C430D10589F7DF91CF911F910F9122
:103D8000FF90EF90089508954CE350E0649F9001F8
:103D9000659F300D749F300D1124820F931F0E9478
:103DA000CF1A08952F923F924F925F926F927F9217
:103DB0008F929F92AF92BF92CF92DF92EF92FF923B
:103DC0000F931F93DF93CF9300D000D0CDB7DEB712
:103DD0008B010B531F4F7C836B83682E792E8EE5EE
:103DE000482E512C460E571EBEE6AB2EB12CA60E09
:103DF000B71E88249924AAE52A2E312C260E371EB8
:103E0000CB018E589F4F9A838983F801508141815D
:103E1000328123810C5F1F4FEB81FC81868197816A
:103E2000009729F0718562859385848502C0BA0167
:103E3000C901DB01FC016B2F7A2F8F2F9E2FDA0136
:103E4000F9012B2F342F4F2F5E2F0E944A80C62E50
:103E5000D72EE82EF92E20E030E0A9010E94AF8095
:103E600087FF07C0F7FAF094F7F8F094F501108295
:103E700003C081E0F5018083C701B601F301258508
:103E80003685478550890E9402820E942081F20176
:103E900061937193819391932F01F101208131817D
:103EA00042815381261737074807590740F460833A
:103EB000718382839383E981FA819182808208945D
:103EC000811C911C8B819C8107969C838B83ECE3E6
:103ED000F0E06E0E7F1E0894A11CB11CF4E08F165A
:103EE000910409F092CF0F900F900F900F90CF9107
:103EF000DF911F910F91FF90EF90DF90CF90BF90D7
:103F0000AF909F908F907F906F905F904F903F9079
:103F10002F9008952F923F924F925F926F927F92CF
:103F20008F929F92AF92BF92CF92DF92EF92FF92C9
:103F30000F931F93DF93CF9300D000D0CDB7DEB7A0
:103F4000FEE5AF2EB12CA60EB71E482F592FCB0180
:103F500082599F4F9A838983EFE79E2E36E9832EFD
:103F600028E1722E9BE4292E8B010C5A1F4F5C8393
:103F70004B83F50181919191A191B1915F010097DE
:103F8000A105B10591F1F801608051804280338034
:103F9000EB81FC81F588E688D788C08CA701960163
:103FA000652F742F832F922FE62DF52DA42DB32D81
:103FB0009F01AD010E94AF8087FD04C0F62CE52C67
:103FC000D42CC32CA7019601652F7E2D832F9C2D09
:103FD000F401A72DB22D2F2F382DAD010E94AF80F7
:103FE00087FF03C047017D2C2C2C8B819C81CC96B4
:103FF0009C838B83E981FA81AE16BF0609F0B9CFA5
:10400000A401652F782D872D922D0F900F900F9082
:104010000F90CF91DF911F910F91FF90EF90DF9064
:10402000CF90BF90AF909F908F907F906F905F9058
:104030004F903F902F9008952F923F924F925F9212
:104040006F927F928F929F92AF92BF92CF92DF92A8
:10405000EF92FF920F931F93DF93CF9300D000D086
:10406000CDB7DEB72EE5A22EB12CA60EB71E482F77
:10407000592FCB0182599F4F9A8389830FE7902E46
:1040800016E9812EB8E17B2EABE42A2E8B010C5A67
:104090001F4F5C834B83F50181919191A191B19167
:1040A0005F010097A105B10591F1F8016080518091
:1040B00042803380EB81FC81F18CE28CD38CC48C08
:1040C000A7019601652F742F832F922FE62DF52DD2
:1040D000A42DB32D9F01AD010E94AF8087FD04C0C8
:1040E000F62CE52CD42CC32CA7019601652F7E2D30
:1040F000832F9C2DF401A72DB22D2F2F382DAD012C
:104100000E94AF8087FF03C047017D2C2C2C8B8140
:104110009C81CC969C838B83E981FA81AE16BF0685
:1041200009F0B9CFA401652F782D872D922D0F901E
:104130000F900F900F90CF91DF911F910F91FF90F3
:10414000EF90DF90CF90BF90AF909F908F907F9037
:104150006F905F904F903F902F9008954F925F9295
:104160006F927F929F92AF92BF92CF92DF92EF9227
:10417000FF920F931F93CF93DF934EE5C42ED12C64
:10418000C60ED71E3EE6A32EB12CA60EB71EE82EF5
:10419000E7017E01F92EE7018B010B541F4FEE243E
:1041A000FF24F8014088518862887388F601619184
:1041B0007191819191916F01F50191905F010E9440
:1041C0004C812D853E854F8558890E94B38099206A
:1041D00029F020E030E040E85FE304C020E030E078
:1041E00040E85FEB0E9402829B01AC01C301B20177
:1041F0000E944B80F80161937193819391938F0199
:104200000894E11CF11CEC96F4E0EF16F10449F679
:10421000DF91CF911F910F91FF90EF90DF90CF90A2
:10422000BF90AF909F907F906F905F904F90089558
:104230002F923F924F925F926F927F928F929F92B6
:10424000AF92BF92CF92DF92EF92FF920F931F93A4
:10425000DF93CF93CDB7DEB7A3970FB6F894DEBF49
:104260000FBECDBF9A8B898B5B016A018901DB018F
:104270008D919C911197181619060CF4C4C3999648
:104280008D919C919A97009709F4BDC39C968D914E
:104290009D910D90BC91A02D8C359105A105B10586
:1042A00001F5FB0120E030E086819781009769F0FD
:1042B000A801420F531FC184D284E384F484DA013D
:1042C000CD92DD92ED92FC92139737962C5F3F4F83
:1042D0002031310549F781E090E0F5019183808339
:1042E00092C381309105A105B10561F0823091053D
:1042F000A105B10539F081E090E0DB0111969C93B6
:104300008E9381C395012B533F4FF801808191819A
:10431000A281B381F90180839183A283B383950144
:1043200027533F4FF80184819581A681B781F90118
:1043300080839183A283B383950123533F4FF80178
:1043400080859185A285B385F90180839183A283BD
:10435000B38395012F523F4FF80184859585A6853B
:10436000B785F90180839183A283B383D501D09669
:104370008D919C91D19795012C5A3F4F009731F424
:10438000F60180819181A281B38105C0F50183A9E5
:1043900094A9A5A9B6A9F90180839183A283B383C7
:1043A00034E5E32EF12CEA0CFB1CD7016D917D91D5
:1043B0008D919C9120E030E0A9010E94AF8088237C
:1043C00049F480E090E8ABEBB4E4F701808391839B
:1043D000A283B38389899A89B5010E94D21E8989F3
:1043E0009A89B5010E94AE20F501EB54FF4F808100
:1043F0009181A281B381F80180839183A283B383E9
:10440000F501E754FF4F80819181A281B381F801CA
:1044100084839583A683B783F501E354FF4F80819E
:104420009181A281B381F80180879187A287B387A8
:10443000F501EF53FF4F80819181A281B381F80193
:1044400084879587A687B787F501EC5AFF4F80814F
:104450009181A281B381F60180839183A283B3838A
:1044600081E090E0D50111969C938E93F501E65A78
:10447000FF4F80819181A281B3810097A105B10591
:1044800009F4C1C2F501EB58FF4F80E090E0DC0178
:1044900080839183A283B383F501E25AFF4FF88FA3
:1044A000EF8B29893A893C8F2B8F39012F0100E04E
:1044B00010E0EE24CC2488249924D2016D917D91C2
:1044C0008D919D912D010E944C81F30125853685AA
:1044D000478550890E94B3809B01AC010E940282F3
:1044E000B62FA72FF82FE92F202F312F4E2D5C2D1F
:1044F000CA01B9010F2F1E2F2B2F3A2FA8010E949E
:104500004B808B01E82EC92E0894811C911C2CE352
:1045100030E0620E731E34E08316910471F6712F41
:104520000E9469829B01AC01F501EB58FF4F60834B
:10453000718382839383F501EC5AFF4F608171810F
:10454000828193810E94B380962E872E782E692EC9
:10455000CE0101969C8B8B8BDE015196BBA3AAA347
:104560008C01E988FA88CF88D88CF6016191719125
:10457000819191916F010E944C81D7011D962D91DF
:104580003D914D915C9150970E94B380D401F3010D
:104590002B2F382D4F2F562D0E940282F801619348
:1045A0007193819391938F012CE330E0E20EF31E1F
:1045B0008AA19BA1E817F907C1F629E7422E512CE1
:1045C0004A0C5B1C8201EB88FC8892E7C92ED12C37
:1045D000CA0CDB1C1E010894211C311C3501D701BB
:1045E0008D909D90AD90BD907D01C501B40120E0FE
:1045F00030E0A9010E94AF808823B9F0D601ED9187
:10460000FC91EE0FFF1FEE0FFF1FE20DF31D608107
:10461000718182819381A50194010E94B380F80188
:10462000608371838283938308C080E090E0DC0123
:10463000F80180839183A283B3830C5F1F4F2AA16B
:104640003BA1E216F30659F653011F8E18A219A2D8
:104650006624222433241D8E1E8E82012501AB89FF
:10466000BC89CD90DD90ED90FD90BC8BAB8BEB8D3C
:10467000FC8D818C928CA38CB48CC701B601A501F2
:1046800094010E94FE811816FCF4C701B601A50131
:1046900094010E944A80D8012D913D914D915C91E9
:1046A0000E940282A62E972E882E792EFD8DEE8DE9
:1046B000222D332D4F2F5E2F0E94FE81181624F4D9
:1046C0002A2C392C8D8E7E8EEB8DFC8D658976891A
:1046D0008789908D20E030E040E05FE30E94028215
:1046E000A62E972E882E792EC701B6012A2D392D98
:1046F000482D572D0E94FE81181614F5C701B601EA
:104700002A2D392D482D572D0E944A80D8012D91F0
:104710003D914D915C910E940282E62ED72EC82ECB
:10472000A92EBF8DA8A1F9A12B2F3A2F4F2F562DBF
:104730000E94FE81181624F4EF8ED8A2C9A26A2C1A
:10474000EB8DFC8DFC96FC8FEB8F0C5F1F4F2B8944
:104750003C898AA19BA12817390709F080CF520113
:10476000F201EE58FF4FC080D180F601EE0FFF1F1F
:10477000EE0FFF1FEC0FFD1FE180F280038114811B
:10478000A1E98A2E912C840C951CC801B701FD8DDE
:10479000EE8D222D332D4F2F5E2F0E944A800E94D6
:1047A0002081D4016D937D938D939C931397C801C1
:1047B000B701BF8DA8A1F9A12B2F3A2F4F2F562D4E
:1047C0000E944A800E942081F201E357FF4F6083DC
:1047D000718382839383F201EB56FF4F6083718371
:1047E00082839383F201E756FF4F60837183828354
:1047F0009383F201E356FF4F608371838283938337
:104800008CE390E0C89EF001C99EF00DD89EF00D9B
:10481000112429893A89E20FF31F658D768D878DE2
:1048200090A10E944C81662E472E282E792EF501EC
:10483000E755FF4F862F942DA22DB72D80839183AE
:10484000A283B38300E010E0FCE3EF2EF12CEF89AC
:10485000F88D81919191A191B191F88FEF8B009793
:10486000A105B10569F00E9DC0010F9D900D1E9D23
:10487000900D112429893A89820F931F0E94BD1837
:104880000F5F1F4F0430110511F7F501EE58FF4F70
:10489000208131818CE390E0289F4001299F900C7A
:1048A000389F900C112489899A89880E991EF501E8
:1048B000E357FF4F80819181A281B3818B8B9C8BC9
:1048C000AD8BBE8BBC01CD010E944C816F8B788F6C
:1048D000898F9A8FF501EF56FF4F60817181828138
:1048E00093810E944C818B019C01C4014F89588D9A
:1048F000698D7A8DA22DB72DC62CD42C7D010E94F6
:10490000C918F501E65AFF4FE080F180028113815A
:10491000A80197015695479537952795F501EF55CD
:10492000FF4FD501AB55BF4F62177307840795073B
:1049300070F0E21AF30A040B150BE082F182028395
:1049400013832D933D934D935C9313970DC0E61AFB
:10495000F70A080B190BE082F182028313836D932F
:104960007D938D939C931397E989FA89EB5EFE4FB3
:1049700020813181428153816F89788D898D9A8D13
:104980000E940282AB01BC01C4010E943A18F501E9
:10499000E757FF4F6083718382839383F501E75666
:1049A000FF4F8B899C89AD89BE8980839183A283C7
:1049B000B383850103551F4F662D742D822D972DCE
:1049C00020E030E040E752E40E94028220E030E044
:1049D0004AE754E40E94B3800E942081D8016D937D
:1049E0007D938D939C931397F501EF54FF4F80E8CF
:1049F0009EE3A0E0B0E080839183A283B383F501BE
:104A0000EC58FF4F1082A3960FB6F894DEBF0FBE8E
:104A1000CDBFCF91DF911F910F91FF90EF90DF906D
:104A2000CF90BF90AF909F908F907F906F905F904E
:104A30004F903F902F9008952F923F924F925F9208
:104A40006F927F928F929F92AF92BF92CF92DF929E
:104A5000EF92FF920F931F93CF93DF93FC01EB0133
:104A6000DA01A880B980CA80DB80D7FE08C0D09464
:104A7000C094B094A094A11CB11CC11CD11C2C8169
:104A80003D814E815F8157FF07C05095409530951D
:104A900021953F4F4F4F5F4FA21AB30AC40AD50A60
:104AA000D7FE08C0D094C094B094A094A11CB11CAF
:104AB000C11CD11CED90FD900D911C91139717FF17
:104AC00008C010950095F094E094E11CF11C011DC4
:104AD000111D14968D919D910D90BC91A02DB7FF45
:104AE00007C0B095A095909581959F4FAF4FBF4F50
:104AF000E81AF90A0A0B1B0B17FF08C0109500955E
:104B0000F094E094E11CF11C011D111D25883688EC
:104B10004788508CC201B101A20191010E944B80D3
:104B20000E941B81662E772E882E992EC801B70110
:104B30000E944E81A20191010E94AF8087FF04C0B4
:104B40006E187F08800A910A6A147B048C049D0405
:104B5000ACF5C401B3010E944E817B018C01C601FA
:104B6000B5010E944E819B01AC01C801B7010E94B2
:104B7000B380F62E672EA82EE92E20E030E040E824
:104B80005FE30E94AF8087FF19C000E010E06881FA
:104B900079818A819B810E944E812F2D362D4A2D4D
:104BA0005E2D0E9402820E941B81699379938993F2
:104BB00099930F5F1F4F0430110549F7DF91CF9193
:104BC0001F910F91FF90EF90DF90CF90BF90AF902B
:104BD0009F908F907F906F905F904F903F902F901D
:104BE00008952F923F924F925F926F927F928F9291
:104BF0009F92AF92BF92CF92DF92EF92FF920F936C
:104C00001F93DF93CF93CDB7DEB72A970FB6F894F3
:104C1000DEBF0FBECDBFE82FF92FFA87E987842FBB
:104C2000952F9E838D83462E572E58864F821C8249
:104C30001B8219821A8260E8262E5FE3352EE985F1
:104C4000FA85658976898789908D20E030E040E497
:104C50005FE30E9402820E9420817B018C01ED8132
:104C6000FE816191719181919191FE83ED83EF813C
:104C7000F885A190B190C190D190F887EF8331E091
:104C8000A114B104C104D10409F030E021E06115A0
:104C900071058105910509F020E0321759F531E0E1
:104CA0001A141B041C041D040CF030E021E016163D
:104CB0001706180619060CF020E03217B9F40E9406
:104CC0004E813B014C01E89497F8C801B7010E945E
:104CD0004C819B01AC01C401B3010E944B800E9436
:104CE0002081E62EF72E082F192F04C01695079560
:104CF000F794E794C801B7010E944C817B018C01B5
:104D0000C601B5010E944E819B01AC015F77C801CD
:104D1000B7010E94B380162FA72EE82E092FB98164
:104D2000AA812B2F3A2F422D532D0E94AF8087FF4F
:104D300004C01983AA822E2C302E8B819C8101966F
:104D40009C838B83E985FA85FC96FA87E987843012
:104D5000910509F074CF59814A81652F742F822DF6
:104D6000932D20E030E040E85FE30E94AF8087FFB2
:104D700020C000E010E0F2016081718182819381A6
:104D80000E944E81B981AA812B2F3A2F422D532D9B
:104D90000E9402820E941B81F201619371938193B0
:104DA00091932F010F5F1F4F0430110521F781E010
:104DB00001C080E02A960FB6F894DEBF0FBECDBFCB
:104DC000CF91DF911F910F91FF90EF90DF90CF90E7
:104DD000BF90AF909F908F907F906F905F904F901B
:104DE0003F902F9008952F923F924F925F926F9233
:104DF0007F928F929F92AF92BF92CF92DF92EF926B
:104E0000FF920F931F93DF93CF93CDB7DEB76497D5
:104E10000FB6F894DEBF0FBECDBF9E878D877C8B0B
:104E20006B8B5A834983DB0199968D919C919A975C
:104E3000009709F47AC29C968D919D910D90BC913A
:104E4000A02D81309105A105B10509F06EC25FC2A8
:104E5000EB89FC89E356FF4F2081318142815381E8
:104E6000EB89FC89E357FF4F80819181A281B38157
:104E700082179307A407B50720F420833183428368
:104E80005383EB89FC89E357FF4F608171818281F5
:104E90009381EB89FC89EB56FF4FF88BEF87E0801D
:104EA000F18002811381EB89FC89EE58FF4FB9EA4A
:104EB0002B2E312C2B893C89220E331E2F563F4F2F
:104EC0003A8B298B6E157F058007910708F0C6C0C5
:104ED000408151815C874B872CE330E0429F300159
:104EE000439F700C529F700C1124AD85BE856A0ED5
:104EF0007B1E0E944C816B837C838D839E83F1019A
:104F00002080318042805380C801B7010E944C81CB
:104F10008B019C01C3014B815C816D817E8172019B
:104F200061010E94C9186F83788789879A87A98948
:104F3000BA896D917D918D919C910E944C818B01DC
:104F40009C01C3014B815C816D817E810E94C918E7
:104F5000DC01CB01EF80F88409851A85E814F90497
:104F60000A051B0508F449C0EB89FC89EB55FF4F86
:104F70001082118212821382EB89FC89EF55FF4F58
:104F80001082118212821382C3014B815C816D8178
:104F90007E8192018101750164010E943B190E948A
:104FA0002081AF85B8896D937D938D939C931397E2
:104FB000E981FA81309709F44CC18F0103571F4FE3
:104FC0000E944C81EB85FC85EE0FFF1FEE0FFF1F4B
:104FD000E980FA80EE0DFF1DE758FF4F20813181F7
:104FE000428153810E94B3800E942081D8016D9339
:104FF0007D938D939C9313972CC1EF80F884098542
:105000001A858E189F08A00AB10AA5019401569529
:105010004795379527958E199F09A00BB10B6B8982
:105020007C896B557F4FEB89FC89EF55FF4F281723
:1050300039074A075B0748F0881A990AAA0ABB0A87
:1050400080829182A282B382FFC0821A930AA40A4C
:10505000B50A80829182A282B382DFC02081318131
:105060003C872B872CE330E04B855C85429F3001E9
:10507000439F700C529F700C1124AD85BE856A0E43
:105080007B1E0E944C816F83788789879A87F10104
:105090002080318042805380C801B7010E944C813A
:1050A000AB01BC01C3010F81188529853A857201C6
:1050B00061010E94C9186B837C838D839E83A989BB
:1050C000BA896D917D918D919C910E944C818B014B
:1050D0009C01C3014F81588569857A850E94C91852
:1050E0009B01AC01EB80FC800D811E81E814F9046A
:1050F0000A051B0508F46AC0EB89FC89EB55FF4FD4
:1051000080829182A282B382EB89FC89EF55FF4FA6
:1051100080829182A282B382920181013058C301C0
:105120004F81588569857A85750164010E943B1914
:105130000E942081AF85B8896D937D938D939C9358
:105140001397E981FA81309709F483C00E944C815A
:10515000EB85FC85EE0FFF1FEE0FFF1FE980FA8045
:10516000EE0DFF1DE758FF4F2081318142815381B1
:105170000E940282062FE72E182F692EE981FA81FC
:10518000E357FF4F60817181828193810E944C813E
:105190004B015C01602F7E2D812F962DA50194017E
:1051A0000E94FE8118162CF4602F7E2D812F962DE3
:1051B00002C0C501B4010E942081E981FA81E35750
:1051C000FF4F608371838283938343C0D501C40101
:1051D000EB80FC800D811E818E199F09A00BB10B05
:1051E000B695A795979587956B897C896B557F4F69
:1051F000EB89FC89EF55FF4F82179307A407B5078A
:1052000098F0821A930AA40AB50A80829182A28237
:10521000B3822E0D3F1D401F511FDB012D933D9387
:105220004D935C93139715C0881A990AAA0ABB0A72
:1052300080829182A282B382EB80FC800D811E81EC
:105240008E0D9F1DA01FB11FFB0180839183A28340
:10525000B383EB89FC89E357FF4F80809180A28064
:10526000B380ED85FE85EB5EFE4F2080318042806D
:105270005380EB89FC89EE58FF4F208131818CE30C
:1052800090E0289F8001299F100D389F100D112458
:10529000ED84FE840E0D1F1DC501B4010E944C81DA
:1052A000A20191010E940282AB01BC01C8010E94CF
:1052B0003A18EB89FC89E757FF4F6083718382833B
:1052C0009383EB89FC89E756FF4F80829182A2820B
:1052D000B38209811A810115110539F1F801EF56E0
:1052E000FF4F80819181A281B381B80163577F4FC5
:1052F000FB01208131814281538182179307A407EA
:10530000B50798F480839183A283B3830EC0EB89A1
:10531000FC89E65AFF4F80809180A280B38081147F
:105320009104A104B10409F093CD64960FB6F894EA
:10533000DEBF0FBECDBFCF91DF911F910F91FF90C8
:10534000EF90DF90CF90BF90AF909F908F907F9025
:105350006F905F904F903F902F90089560E070E0C5
:10536000ACE3B0E06A9FF0016B9FF00D7A9FF00D07
:105370001124E80FF91F21853285438554852115B5
:1053800031054105510539F46F5F7F4F6430710578
:1053900049F780E0089581E008959FB7F89483E08D
:1053A0008093800089E180938100B198E4E6F0E089
:1053B0008081877F8083EFE6F0E080818D7F80832E
:1053C000B1989FBF08959FB7F894E4E6F0E080811C
:1053D00088608083B19810928500109284009FBFEE
:1053E0000895EFE6F0E08081826080830895EFE623
:1053F000F0E080818D7F808308951F93CF93DF93AA
:10540000EC01CB01BA011FB7F89461362AEE72079E
:1054100020E0820720E0920788F020E63AEE309301
:1054200089002093880020E63AEE40E050E00E9498
:105430000283CE5EDE4F3983288313C0643F21E0B0
:10544000720720E0820720E0920738F484EF91E0B1
:10545000909389008093880004C0709389006093C2
:1054600088001FBFDF91CF911F9108958F929F9267
:10547000AF92BF92CF92DF92EF92FF920F931F9362
:10548000CF93DF93EC018C010C5E1E4FD8018C9101
:10549000882309F0ABC281E08C93CE010E94F729EA
:1054A0007894FE01EE5EFE4F8081918118161906F8
:1054B0004CF480819181019791838083CE010E9479
:1054C000F1291DC070EFE72EF12CEC0EFD1ED70167
:1054D000ED91FC91E65AFF4F80819181A281B381C9
:1054E0000097A105B10571F4CE010E94F729D701FB
:1054F000ED91FC91119783E090E091838083F80116
:10550000108274C2D701ED91FC91E65AFF4F808161
:105510009181A281B3810197A109B109808391830F
:10552000A283B383FE01E75EFE4F118210828F01DA
:105530006CE3C62ED12C7CC0D701ED91FC91119764
:10554000EE58FF4F808191816817790761F46C9D57
:10555000C0016D9D900D7C9D900D11248C0F9D1FA1
:105560000E949B195FC09B01220F331F220F331F24
:105570002C0F3D1F42E0A42E41E0B42EA20EB31E1C
:10558000F50180819181A281B3812E503F4FF901B5
:105590002081318142815381821B930BA40BB50B77
:1055A000F50180839183A283B38380819181A2815D
:1055B000B381B7FF37C06C9DC0016D9D900D7C9D80
:1055C000900D11248C0F9D1F0E949B19D801ED9105
:1055D000FC91EE0FFF1FEE0FFF1FEC0FFD1FEE5FA4
:1055E000FE4F80809180A280B380D7012D913C91A5
:1055F0002E583F4FD9012D913C91220F331F220F7E
:10560000331F2C0F3D1F2E503F4FD9012D913D913F
:105610004D915C91820E931EA41EB51E80829182D4
:10562000A282B382F8018081918101969183808367
:10563000D8016D917C911197643071050CF47CCF89
:105640001BE1C12E11E0D12ECC0EDD1EF601118220
:105650001082D7016D917C9111976F547F4FFB01A0
:1056600020813181428153810D90BC91A02DA7579B
:10567000BF4F8D919D910D90BC91A02D820F931FD6
:10568000A41FB51F80839183A283B3838E01005131
:105690001F4F22C0D801ED90FC90E1EBF0E0EE0E40
:1056A000FF1ED7016D917D918D919C910E944C813F
:1056B00020E030E04AE756E40E944A800E942081C0
:1056C000F7016083718382839383D6018D919C91CE
:1056D000119701968D939C93D801ED91FC91EF5415
:1056E000FF4F60817181828193810E944C8120E013
:1056F00030E04AE756E40E94FE8118165CF2F6019B
:10570000608171816115710509F420C1D801ED91A5
:10571000FC911197E65AFF4F2081318142815381DC
:10572000ED91FC91EF55FF4F80819181A281B38172
:10573000281739074A075B0708F43CC1D801ED91E7
:10574000FC911197E756FF4F2081318142815381AF
:10575000ED91FC91EF56FF4F80819181A281B38141
:10576000281739074A075B0708F024C1F801E080D1
:10577000F18089E990E0E80EF91ED701AD90BD9067
:10578000CD90DC900190F081E02DE355FF4F20811A
:10579000318142815381882777FD8095982F0E941F
:1057A000BC826A0D7B1D8C1D9D1DF701608371837A
:1057B00082839383D801ED91FC911197E756FF4FB7
:1057C0002081318142815381ED91FC91EF56FF4F51
:1057D00080819181A281B38182179307A407B507C5
:1057E00008F06EC0F80120813181A081B181AF56EF
:1057F000BF4F5AC0D801ED91FC911197E756FF4F6A
:105800002081318142815381ED91FC91EB56FF4F14
:1058100080819181A281B38182179307A407B50784
:1058200008F094C0F801E080F18089E990E0E80E8A
:10583000F91ED701AD90BD90CD90DC900190F08124
:10584000E02DE355FF4F208131814281538188272C
:1058500077FD8095982F0E94BC82A61AB70AC80AC5
:10586000D90AF701A082B182C282D382D801ED9118
:10587000FC911197E756FF4F20813181428153817E
:10588000ED91FC91EB56FF4F80819181A281B38114
:10589000281739074A075B0798F4F80120813181FE
:1058A000A081B181AB56BF4F8D919D910D90BC9160
:1058B000A02D27563F4FF90180839183A283B383A4
:1058C0008E0100511F4FD8018D909C901197ED9142
:1058D000FC911197EE58FF4F40815181ED91FC9161
:1058E000E756FF4F6081718182819381FE01EB5EFB
:1058F000FE4FA080B180C280D3802CE330E0429F75
:105900007001439FF00C529FF00C1124EC0EFD1E11
:105910000E944C81A60195010E940282AB01BC014C
:10592000C7010E943A18F401E757FF4F6083718363
:1059300082839383D801ED91FC91E757FF4F40811B
:10594000518162817381CE010E94FD29CE010E94A6
:10595000AE29882361F4FE01E051FF4F0190F081F0
:10596000E02DE65AFF4F10821182128213828E01BF
:1059700000511F4FD801ED91FC91E65AFF4F8081F5
:105980009181A281B3810097A105B10561F4CE0197
:105990000E94F729D801ED91FC91119783E090E0E6
:1059A0009183808303C0CE010E94F129CC5EDE4F3B
:1059B00018821CC08E0100511F4FD801ED91FC913F
:1059C0001197E65AFF4F2081318142815381ED9139
:1059D000FC91EB55FF4F80819181A281B3818217A9
:1059E0009307A407B50708F005CFB0CFDF91CF919B
:1059F0001F910F91FF90EF90DF90CF90BF90AF90ED
:105A00009F908F9008951F920F920FB60F920BB632
:105A10000F9211242F933F934F935F936F937F9334
:105A20008F939F93AF93BF93EF93FF938091E8037E
:105A30009091E9030E94362AFF91EF91BF91AF91B7
:105A40009F918F917F916F915F914F913F912F9196
:105A50000F900BBE0F900FBE0F901F9018954FB771
:105A6000F894FC01228133814FBFC9010895CF937F
:105A7000DF93EC010E946C0A41E028813981821792
:105A8000930708F440E0842FDF91CF9108950F939E
:105A90001F93DF93CF9300D00F92CDB7DEB7AC0149
:105AA0008C0102541E4FC80149835A836B830E94A4
:105AB000A10A49815A816B818823A9F7FA01E85329
:105AC000FE4FA081B1816C93808191810196918379
:105AD0008083DA01AC53BE4F2D913C911197821710
